{
  "contractName": "TicketHelper",
  "abi": [
    {
      "anonymous": false,
      "inputs": [
        {
          "indexed": false,
          "internalType": "uint256",
          "name": "eventId",
          "type": "uint256"
        },
        {
          "indexed": false,
          "internalType": "string",
          "name": "eventName",
          "type": "string"
        },
        {
          "indexed": false,
          "internalType": "uint256",
          "name": "date",
          "type": "uint256"
        },
        {
          "indexed": false,
          "internalType": "address",
          "name": "creator",
          "type": "address"
        }
      ],
      "name": "NewEvent",
      "type": "event"
    },
    {
      "anonymous": false,
      "inputs": [
        {
          "indexed": false,
          "internalType": "uint256",
          "name": "ticketId",
          "type": "uint256"
        },
        {
          "indexed": false,
          "internalType": "uint256",
          "name": "eventId",
          "type": "uint256"
        },
        {
          "indexed": false,
          "internalType": "string",
          "name": "eventName",
          "type": "string"
        },
        {
          "indexed": false,
          "internalType": "uint32",
          "name": "date",
          "type": "uint32"
        }
      ],
      "name": "NewTicket",
      "type": "event"
    },
    {
      "anonymous": false,
      "inputs": [
        {
          "indexed": true,
          "internalType": "address",
          "name": "previousOwner",
          "type": "address"
        },
        {
          "indexed": true,
          "internalType": "address",
          "name": "newOwner",
          "type": "address"
        }
      ],
      "name": "OwnershipTransferred",
      "type": "event"
    },
    {
      "constant": false,
      "inputs": [
        {
          "internalType": "string",
          "name": "_eventName",
          "type": "string"
        },
        {
          "internalType": "uint32",
          "name": "_date",
          "type": "uint32"
        }
      ],
      "name": "createEvent",
      "outputs": [],
      "payable": false,
      "stateMutability": "nonpayable",
      "type": "function"
    },
    {
      "constant": false,
      "inputs": [
        {
          "internalType": "uint256",
          "name": "_eventId",
          "type": "uint256"
        }
      ],
      "name": "createTicket",
      "outputs": [],
      "payable": false,
      "stateMutability": "nonpayable",
      "type": "function"
    },
    {
      "constant": true,
      "inputs": [
        {
          "internalType": "uint256",
          "name": "",
          "type": "uint256"
        }
      ],
      "name": "eventTicketCount",
      "outputs": [
        {
          "internalType": "uint256",
          "name": "",
          "type": "uint256"
        }
      ],
      "payable": false,
      "stateMutability": "view",
      "type": "function"
    },
    {
      "constant": true,
      "inputs": [
        {
          "internalType": "uint256",
          "name": "",
          "type": "uint256"
        }
      ],
      "name": "events",
      "outputs": [
        {
          "internalType": "string",
          "name": "eventName",
          "type": "string"
        },
        {
          "internalType": "uint32",
          "name": "date",
          "type": "uint32"
        },
        {
          "internalType": "address",
          "name": "creator",
          "type": "address"
        },
        {
          "internalType": "uint32",
          "name": "totalTickets",
          "type": "uint32"
        }
      ],
      "payable": false,
      "stateMutability": "view",
      "type": "function"
    },
    {
      "constant": true,
      "inputs": [],
      "name": "isOwner",
      "outputs": [
        {
          "internalType": "bool",
          "name": "",
          "type": "bool"
        }
      ],
      "payable": false,
      "stateMutability": "view",
      "type": "function"
    },
    {
      "constant": true,
      "inputs": [],
      "name": "owner",
      "outputs": [
        {
          "internalType": "address",
          "name": "",
          "type": "address"
        }
      ],
      "payable": false,
      "stateMutability": "view",
      "type": "function"
    },
    {
      "constant": true,
      "inputs": [
        {
          "internalType": "address",
          "name": "",
          "type": "address"
        }
      ],
      "name": "ownerTicketCount",
      "outputs": [
        {
          "internalType": "uint256",
          "name": "",
          "type": "uint256"
        }
      ],
      "payable": false,
      "stateMutability": "view",
      "type": "function"
    },
    {
      "constant": false,
      "inputs": [],
      "name": "renounceOwnership",
      "outputs": [],
      "payable": false,
      "stateMutability": "nonpayable",
      "type": "function"
    },
    {
      "constant": true,
      "inputs": [
        {
          "internalType": "uint256",
          "name": "",
          "type": "uint256"
        }
      ],
      "name": "ticketToOwner",
      "outputs": [
        {
          "internalType": "address",
          "name": "",
          "type": "address"
        }
      ],
      "payable": false,
      "stateMutability": "view",
      "type": "function"
    },
    {
      "constant": true,
      "inputs": [
        {
          "internalType": "uint256",
          "name": "",
          "type": "uint256"
        }
      ],
      "name": "tickets",
      "outputs": [
        {
          "internalType": "uint256",
          "name": "eventId",
          "type": "uint256"
        },
        {
          "internalType": "uint8",
          "name": "transferCount",
          "type": "uint8"
        }
      ],
      "payable": false,
      "stateMutability": "view",
      "type": "function"
    },
    {
      "constant": false,
      "inputs": [
        {
          "internalType": "address",
          "name": "newOwner",
          "type": "address"
        }
      ],
      "name": "transferOwnership",
      "outputs": [],
      "payable": false,
      "stateMutability": "nonpayable",
      "type": "function"
    },
    {
      "constant": true,
      "inputs": [
        {
          "internalType": "address",
          "name": "_owner",
          "type": "address"
        }
      ],
      "name": "getTicketsByOwner",
      "outputs": [
        {
          "internalType": "uint256[]",
          "name": "",
          "type": "uint256[]"
        }
      ],
      "payable": false,
      "stateMutability": "view",
      "type": "function"
    },
    {
      "constant": true,
      "inputs": [],
      "name": "getEventsLength",
      "outputs": [
        {
          "internalType": "uint256",
          "name": "",
          "type": "uint256"
        }
      ],
      "payable": false,
      "stateMutability": "view",
      "type": "function"
    },
    {
      "constant": true,
      "inputs": [],
      "name": "getTicketsLength",
      "outputs": [
        {
          "internalType": "uint256",
          "name": "",
          "type": "uint256"
        }
      ],
      "payable": false,
      "stateMutability": "view",
      "type": "function"
    }
  ],
  "bytecode": "0x6080604052336000806101000a81548173ffffffffffffffffffffffffffffffffffffffff021916908373ffffffffffffffffffffffffffffffffffffffff1602179055506000809054906101000a900473ffffffffffffffffffffffffffffffffffffffff1673ffffffffffffffffffffffffffffffffffffffff16600073ffffffffffffffffffffffffffffffffffffffff167f8be0079c531659141344cd1fd0a4f28419497f9722a3daafe3b4186f6b6457e060405160405180910390a3611478806100cf6000396000f3fe608060405234801561001057600080fd5b50600436106100ea5760003560e01c806354fdfd4e1161008c5780638da5cb5b116100665780638da5cb5b146102735780638f32d59b14610291578063983d7f45146102af578063f2fde38b146102cd576100ea565b806354fdfd4e1461020957806367aa23e214610239578063715018a614610269576100ea565b80632b08e824116100c85780632b08e8241461016e5780632bdd59b01461019e57806347fc216e146101ba57806350b44712146101d8576100ea565b80630497879c146100ef5780630b7914301461010b5780631af32d781461013e575b600080fd5b61010960048036036101049190810190610e2a565b6102e9565b005b61012560048036036101209190810190610e2a565b6105a8565b60405161013594939291906110da565b60405180910390f35b61015860048036036101539190810190610e2a565b6106bd565b6040516101659190611146565b60405180910390f35b61018860048036036101839190810190610e2a565b6106d5565b6040516101959190611082565b60405180910390f35b6101b860048036036101b39190810190610dd6565b610708565b005b6101c2610876565b6040516101cf9190611146565b60405180910390f35b6101f260048036036101ed9190810190610e2a565b610883565b6040516102009291906111f9565b60405180910390f35b610223600480360361021e9190810190610dad565b6108c1565b6040516102309190611146565b60405180910390f35b610253600480360361024e9190810190610dad565b6108d9565b604051610260919061109d565b60405180910390f35b610271610a03565b005b61027b610ad3565b6040516102889190611082565b60405180910390f35b610299610afc565b6040516102a691906110bf565b60405180910390f35b6102b7610b53565b6040516102c49190611146565b60405180910390f35b6102e760048036036102e29190810190610dad565b610b60565b005b80806002805490501015610332576040517f08c379a000000000000000000000000000000000000000000000000000000000815260040161032990611126565b60405180910390fd5b813373ffffffffffffffffffffffffffffffffffffffff166002828154811061035757fe5b906000526020600020906002020160010160049054906101000a900473ffffffffffffffffffffffffffffffffffffffff1673ffffffffffffffffffffffffffffffffffffffff16146103a957600080fd5b60006001806040518060400160405280878152602001600060ff16815250908060018154018082558091505090600182039060005260206000209060020201600090919290919091506000820151816000015560208201518160010160006101000a81548160ff021916908360ff1602179055505050039050336003600083815260200190815260200160002060006101000a81548173ffffffffffffffffffffffffffffffffffffffff021916908373ffffffffffffffffffffffffffffffffffffffff160217905550600560003373ffffffffffffffffffffffffffffffffffffffff1673ffffffffffffffffffffffffffffffffffffffff16815260200190815260200160002060008154809291906001019190505550600284815481106104d057fe5b9060005260206000209060020201600101601881819054906101000a900463ffffffff168092919060010191906101000a81548163ffffffff021916908363ffffffff160217905550507f18b0cd07168eb72bb0c5bd4ef7b666b3dd0c9baa9874f61bba1374eb59103c0081856002878154811061054a57fe5b90600052602060002090600202016000016002888154811061056857fe5b906000526020600020906002020160010160009054906101000a900463ffffffff1660405161059a94939291906111ad565b60405180910390a150505050565b600281815481106105b557fe5b9060005260206000209060020201600091509050806000018054600181600116156101000203166002900480601f0160208091040260200160405190810160405280929190818152602001828054600181600116156101000203166002900480156106615780601f1061063657610100808354040283529160200191610661565b820191906000526020600020905b81548152906001019060200180831161064457829003601f168201915b5050505050908060010160009054906101000a900463ffffffff16908060010160049054906101000a900473ffffffffffffffffffffffffffffffffffffffff16908060010160189054906101000a900463ffffffff16905084565b60046020528060005260406000206000915090505481565b60036020528060005260406000206000915054906101000a900473ffffffffffffffffffffffffffffffffffffffff1681565b60006001600260405180608001604052808681526020018563ffffffff1681526020013373ffffffffffffffffffffffffffffffffffffffff168152602001600063ffffffff16815250908060018154018082558091505090600182039060005260206000209060020201600090919290919091506000820151816000019080519060200190610799929190610c75565b5060208201518160010160006101000a81548163ffffffff021916908363ffffffff16021790555060408201518160010160046101000a81548173ffffffffffffffffffffffffffffffffffffffff021916908373ffffffffffffffffffffffffffffffffffffffff16021790555060608201518160010160186101000a81548163ffffffff021916908363ffffffff16021790555050500390507f39de19294043c7c50481199e26d4db1752b963bc0ac61b76d22d9810e7603e70818484336040516108699493929190611161565b60405180910390a1505050565b6000600280549050905090565b6001818154811061089057fe5b90600052602060002090600202016000915090508060000154908060010160009054906101000a900460ff16905082565b60056020528060005260406000206000915090505481565b606080600560008473ffffffffffffffffffffffffffffffffffffffff1673ffffffffffffffffffffffffffffffffffffffff1681526020019081526020016000205460405190808252806020026020018201604052801561094a5781602001602082028038833980820191505090505b509050600080600090505b6001805490508110156109f8578473ffffffffffffffffffffffffffffffffffffffff166003600083815260200190815260200160002060009054906101000a900473ffffffffffffffffffffffffffffffffffffffff1673ffffffffffffffffffffffffffffffffffffffff1614156109eb57808383815181106109d657fe5b60200260200101818152505081806001019250505b8080600101915050610955565b508192505050919050565b610a0b610afc565b610a1457600080fd5b600073ffffffffffffffffffffffffffffffffffffffff166000809054906101000a900473ffffffffffffffffffffffffffffffffffffffff1673ffffffffffffffffffffffffffffffffffffffff167f8be0079c531659141344cd1fd0a4f28419497f9722a3daafe3b4186f6b6457e060405160405180910390a360008060006101000a81548173ffffffffffffffffffffffffffffffffffffffff021916908373ffffffffffffffffffffffffffffffffffffffff160217905550565b60008060009054906101000a900473ffffffffffffffffffffffffffffffffffffffff16905090565b60008060009054906101000a900473ffffffffffffffffffffffffffffffffffffffff1673ffffffffffffffffffffffffffffffffffffffff163373ffffffffffffffffffffffffffffffffffffffff1614905090565b6000600180549050905090565b610b68610afc565b610b7157600080fd5b610b7a81610b7d565b50565b600073ffffffffffffffffffffffffffffffffffffffff168173ffffffffffffffffffffffffffffffffffffffff161415610bb757600080fd5b8073ffffffffffffffffffffffffffffffffffffffff166000809054906101000a900473ffffffffffffffffffffffffffffffffffffffff1673ffffffffffffffffffffffffffffffffffffffff167f8be0079c531659141344cd1fd0a4f28419497f9722a3daafe3b4186f6b6457e060405160405180910390a3806000806101000a81548173ffffffffffffffffffffffffffffffffffffffff021916908373ffffffffffffffffffffffffffffffffffffffff16021790555050565b828054600181600116156101000203166002900490600052602060002090601f016020900481019282601f10610cb657805160ff1916838001178555610ce4565b82800160010185558215610ce4579182015b82811115610ce3578251825591602001919060010190610cc8565b5b509050610cf19190610cf5565b5090565b610d1791905b80821115610d13576000816000905550600101610cfb565b5090565b90565b600081359050610d29816113f0565b92915050565b600082601f830112610d4057600080fd5b8135610d53610d4e8261124f565b611222565b91508082526020830160208301858383011115610d6f57600080fd5b610d7a83828461139d565b50505092915050565b600081359050610d9281611407565b92915050565b600081359050610da78161141e565b92915050565b600060208284031215610dbf57600080fd5b6000610dcd84828501610d1a565b91505092915050565b60008060408385031215610de957600080fd5b600083013567ffffffffffffffff811115610e0357600080fd5b610e0f85828601610d2f565b9250506020610e2085828601610d98565b9150509250929050565b600060208284031215610e3c57600080fd5b6000610e4a84828501610d83565b91505092915050565b6000610e5f8383611037565b60208301905092915050565b610e7481611355565b82525050565b610e83816112f0565b82525050565b6000610e94826112a0565b610e9e81856112ce565b9350610ea98361127b565b8060005b83811015610eda578151610ec18882610e53565b9750610ecc836112c1565b925050600181019050610ead565b5085935050505092915050565b610ef081611302565b82525050565b6000610f01826112b6565b610f0b81856112df565b9350610f1b8185602086016113ac565b610f24816113df565b840191505092915050565b6000610f3a826112ab565b610f4481856112df565b9350610f548185602086016113ac565b610f5d816113df565b840191505092915050565b600081546001811660008114610f855760018114610fab57610fef565b607f6002830416610f9681876112df565b955060ff198316865260208601935050610fef565b60028204610fb981876112df565b9550610fc48561128b565b60005b82811015610fe657815481890152600182019150602081019050610fc7565b80880195505050505b505092915050565b60006110046015836112df565b91507f4576656e7420646f6573206e6f742065786973742100000000000000000000006000830152602082019050919050565b6110408161132e565b82525050565b61104f8161132e565b82525050565b61105e8161138b565b82525050565b61106d81611338565b82525050565b61107c81611348565b82525050565b60006020820190506110976000830184610e7a565b92915050565b600060208201905081810360008301526110b78184610e89565b905092915050565b60006020820190506110d46000830184610ee7565b92915050565b600060808201905081810360008301526110f48187610f2f565b90506111036020830186611064565b6111106040830185610e7a565b61111d6060830184611064565b95945050505050565b6000602082019050818103600083015261113f81610ff7565b9050919050565b600060208201905061115b6000830184611046565b92915050565b60006080820190506111766000830187611046565b81810360208301526111888186610ef6565b90506111976040830185611055565b6111a46060830184610e6b565b95945050505050565b60006080820190506111c26000830187611046565b6111cf6020830186611046565b81810360408301526111e18185610f68565b90506111f06060830184611064565b95945050505050565b600060408201905061120e6000830185611046565b61121b6020830184611073565b9392505050565b6000604051905081810181811067ffffffffffffffff8211171561124557600080fd5b8060405250919050565b600067ffffffffffffffff82111561126657600080fd5b601f19601f8301169050602081019050919050565b6000819050602082019050919050565b60008190508160005260206000209050919050565b600081519050919050565b600081519050919050565b600081519050919050565b6000602082019050919050565b600082825260208201905092915050565b600082825260208201905092915050565b60006112fb8261130e565b9050919050565b60008115159050919050565b600073ffffffffffffffffffffffffffffffffffffffff82169050919050565b6000819050919050565b600063ffffffff82169050919050565b600060ff82169050919050565b600061136082611367565b9050919050565b600061137282611379565b9050919050565b60006113848261130e565b9050919050565b600061139682611338565b9050919050565b82818337600083830152505050565b60005b838110156113ca5780820151818401526020810190506113af565b838111156113d9576000848401525b50505050565b6000601f19601f8301169050919050565b6113f9816112f0565b811461140457600080fd5b50565b6114108161132e565b811461141b57600080fd5b50565b61142781611338565b811461143257600080fd5b5056fea365627a7a72315820df1265cb6deaf92a99d6976207cb4ebdfef369ec71f99ce45269c6a95e7f3df46c6578706572696d656e74616cf564736f6c63430005100040",
  "source": "pragma solidity >=0.5.0 <0.6.0;\r\npragma experimental ABIEncoderV2;\r\n\r\nimport \"./ticketFactory.sol\";\r\n\r\ncontract TicketHelper is TicketFactory {\r\n    function getTicketsByOwner(address _owner)\r\n        external\r\n        view\r\n        returns (uint256[] memory)\r\n    {\r\n        uint256[] memory result = new uint256[](ownerTicketCount[_owner]);\r\n        uint256 counter;\r\n\r\n        for (uint256 i = 0; i < tickets.length; i++) {\r\n            if (ticketToOwner[i] == _owner) {\r\n                result[counter] = i;\r\n                counter++;\r\n            }\r\n        }\r\n\r\n        return result;\r\n    }\r\n\r\n    function getEventsLength() external view returns (uint256) {\r\n        return events.length;\r\n    }\r\n\r\n    function getTicketsLength() external view returns (uint256) {\r\n        return tickets.length;\r\n    }\r\n}\r\n",
  "sourcePath": "C:\\Users\\Ali\\source\\repos\\secure-ticket\\contracts\\ticketHelper.sol",
  "compiler": {
    "name": "solc",
    "version": "0.5.16+commit.9c3226ce.Emscripten.clang"
  },
  "schemaVersion": "3.3.3",
  "updatedAt": "2021-02-10T12:54:15.038Z",
  "devdoc": {
    "methods": {
      "isOwner()": {
        "return": "true if `msg.sender` is the owner of the contract."
      },
      "owner()": {
        "return": "the address of the owner."
      },
      "renounceOwnership()": {
        "details": "Allows the current owner to relinquish control of the contract."
      },
      "transferOwnership(address)": {
        "details": "Allows the current owner to transfer control of the contract to a newOwner.",
        "params": {
          "newOwner": "The address to transfer ownership to."
        }
      }
    }
  },
  "userdoc": {
    "methods": {
      "renounceOwnership()": {
        "notice": "Renouncing to ownership will leave the contract without an owner. It will not be possible to call the functions with the `onlyOwner` modifier anymore."
      }
    }
  }
}